{
  "contractName": "ItemShop",
  "abi": [
    {
      "inputs": [],
      "payable": true,
      "stateMutability": "payable",
      "type": "constructor"
    },
    {
      "anonymous": false,
      "inputs": [
        {
          "indexed": false,
          "internalType": "uint256",
          "name": "sku",
          "type": "uint256"
        }
      ],
      "name": "Forsale",
      "type": "event"
    },
    {
      "anonymous": false,
      "inputs": [
        {
          "indexed": false,
          "internalType": "uint256",
          "name": "sku",
          "type": "uint256"
        }
      ],
      "name": "Sold",
      "type": "event"
    },
    {
      "constant": false,
      "inputs": [
        {
          "internalType": "string",
          "name": "_name",
          "type": "string"
        },
        {
          "internalType": "uint256",
          "name": "_price",
          "type": "uint256"
        }
      ],
      "name": "addItem",
      "outputs": [],
      "payable": false,
      "stateMutability": "nonpayable",
      "type": "function"
    },
    {
      "constant": false,
      "inputs": [
        {
          "internalType": "uint256",
          "name": "_sku",
          "type": "uint256"
        }
      ],
      "name": "buyItem",
      "outputs": [],
      "payable": true,
      "stateMutability": "payable",
      "type": "function"
    },
    {
      "constant": true,
      "inputs": [
        {
          "internalType": "uint256",
          "name": "_sku",
          "type": "uint256"
        }
      ],
      "name": "fetchItem",
      "outputs": [
        {
          "internalType": "string",
          "name": "name",
          "type": "string"
        },
        {
          "internalType": "uint256",
          "name": "sku",
          "type": "uint256"
        },
        {
          "internalType": "uint256",
          "name": "price",
          "type": "uint256"
        },
        {
          "internalType": "string",
          "name": "stateRes",
          "type": "string"
        },
        {
          "internalType": "address",
          "name": "seller",
          "type": "address"
        },
        {
          "internalType": "address",
          "name": "buyer",
          "type": "address"
        }
      ],
      "payable": false,
      "stateMutability": "view",
      "type": "function"
    }
  ],
  "bytecode": "0x6080604052336000806101000a81548173ffffffffffffffffffffffffffffffffffffffff021916908373ffffffffffffffffffffffffffffffffffffffff16021790555060006001819055506109a98061005b6000396000f3fe6080604052600436106100345760003560e01c806362d6bbdf14610039578063ad4b9cfb1461010b578063e7fb74c71461029f575b600080fd5b34801561004557600080fd5b506101096004803603604081101561005c57600080fd5b810190808035906020019064010000000081111561007957600080fd5b82018360208201111561008b57600080fd5b803590602001918460018302840111640100000000831117156100ad57600080fd5b91908080601f016020809104026020016040519081016040528093929190818152602001838380828437600081840152601f19601f820116905080830192505050505050509192919290803590602001909291905050506102cd565b005b34801561011757600080fd5b506101446004803603602081101561012e57600080fd5b81019080803590602001909291905050506104d6565b6040518080602001878152602001868152602001806020018573ffffffffffffffffffffffffffffffffffffffff1673ffffffffffffffffffffffffffffffffffffffff1681526020018473ffffffffffffffffffffffffffffffffffffffff1673ffffffffffffffffffffffffffffffffffffffff168152602001838103835289818151815260200191508051906020019080838360005b838110156101f85780820151818401526020810190506101dd565b50505050905090810190601f1680156102255780820380516001836020036101000a031916815260200191505b50838103825286818151815260200191508051906020019080838360005b8381101561025e578082015181840152602081019050610243565b50505050905090810190601f16801561028b5780820380516001836020036101000a031916815260200191505b509850505050505050505060405180910390f35b6102cb600480360360208110156102b557600080fd5b81019080803590602001909291905050506106f6565b005b6000809054906101000a900473ffffffffffffffffffffffffffffffffffffffff1673ffffffffffffffffffffffffffffffffffffffff163373ffffffffffffffffffffffffffffffffffffffff161461032657600080fd5b60018054016001819055507f9035734a7824dec42d4d07bca3a3eaf503db4e79aef1c8a08fd1ee05658a030b6001546040518082815260200191505060405180910390a16040518060c0016040528083815260200160015481526020018281526020016000600181111561039657fe5b81526020013373ffffffffffffffffffffffffffffffffffffffff168152602001600073ffffffffffffffffffffffffffffffffffffffff1681525060026000600154815260200190815260200160002060008201518160000190805190602001906104039291906108cf565b50602082015181600101556040820151816002015560608201518160030160006101000a81548160ff0219169083600181111561043c57fe5b021790555060808201518160030160016101000a81548173ffffffffffffffffffffffffffffffffffffffff021916908373ffffffffffffffffffffffffffffffffffffffff16021790555060a08201518160040160006101000a81548173ffffffffffffffffffffffffffffffffffffffff021916908373ffffffffffffffffffffffffffffffffffffffff1602179055509050505050565b60606000806060600080600260008881526020019081526020016000206000018054600181600116156101000203166002900480601f01602080910402602001604051908101604052809291908181526020018280546001816001161561010002031660029004801561058a5780601f1061055f5761010080835404028352916020019161058a565b820191906000526020600020905b81548152906001019060200180831161056d57829003601f168201915b5050505050955060026000888152602001908152602001600020600101549450600260008881526020019081526020016000206002015493506002600088815260200190815260200160002060030160019054906101000a900473ffffffffffffffffffffffffffffffffffffffff1691506002600088815260200190815260200160002060040160009054906101000a900473ffffffffffffffffffffffffffffffffffffffff16905060006002600089815260200190815260200160002060030160009054906101000a900460ff16600181111561066657fe5b905060008114156106aa576040518060400160405280600881526020017f466f722053616c6500000000000000000000000000000000000000000000000081525093505b60018114156106ec576040518060400160405280600481526020017f536f6c640000000000000000000000000000000000000000000000000000000081525093505b5091939550919395565b806000600181111561070457fe5b6002600083815260200190815260200160002060030160009054906101000a900460ff16600181111561073357fe5b1461073d57600080fd5b60026000838152602001908152602001600020600201548034101561076157600080fd5b600033905060016002600086815260200190815260200160002060030160006101000a81548160ff0219169083600181111561079957fe5b0217905550806002600086815260200190815260200160002060040160006101000a81548173ffffffffffffffffffffffffffffffffffffffff021916908373ffffffffffffffffffffffffffffffffffffffff16021790555060006002600086815260200190815260200160002060020154905060006002600087815260200190815260200160002060030160019054906101000a900473ffffffffffffffffffffffffffffffffffffffff1690508073ffffffffffffffffffffffffffffffffffffffff166108fc839081150290604051600060405180830381858888f1935050505015801561088f573d6000803e3d6000fd5b507f92f64ca637d023f354075a4be751b169c1a8a9ccb6d33cdd0cb3520543995727866040518082815260200191505060405180910390a1505050505050565b828054600181600116156101000203166002900490600052602060002090601f016020900481019282601f1061091057805160ff191683800117855561093e565b8280016001018555821561093e579182015b8281111561093d578251825591602001919060010190610922565b5b50905061094b919061094f565b5090565b61097191905b8082111561096d576000816000905550600101610955565b5090565b9056fea265627a7a7231582075732d8de5f494ec7ffa73cb1190f9b9f7d77233b9d4c7c2fe2770ff4af5d94664736f6c63430005100032",
  "source": "// SPDX-License-Identifier: UNLISCENSED\npragma solidity ^0.5.16;\n\ncontract ItemShop{\n    \n   address owner;\n   \n   uint256 skuCount;\n   \n   enum State{ Forsale, Sold }\n    \n    struct Item{\n        string name;\n        uint256 sku;\n        uint256 price;\n        State state;\n        address seller;\n        address buyer;\n    }\n    \n    mapping(uint256 => Item) items;\n    \n    event Forsale(uint256 sku);\n    \n    event Sold(uint256 sku);\n    \n    modifier onlyOwner(){\n        require(msg.sender == owner);\n        _;\n    }\n    \n    modifier verifyCaller(address _address){\n        require(msg.sender == _address);\n        _;\n    }\n    \n    modifier paidEnough(uint256 _price){\n        require(msg.value >= _price);\n        _;\n    }\n    \n    modifier forSale(uint256 _sku){\n        require(items[_sku].state == State.Forsale);\n        _;\n    }\n    \n    modifier sold(uint256 _sku){\n        require(items[_sku].state == State.Sold);\n        _;\n    }\n    \n    constructor() public payable{\n        owner = msg.sender;\n        skuCount = 0;\n    }\n    \n    function addItem(string memory _name, uint256 _price) onlyOwner public{\n        skuCount = skuCount + 1;\n        \n        emit Forsale(skuCount);\n        \n        items[skuCount] = Item({\n            name: _name,\n            sku: skuCount,\n            price: _price,\n            state: State.Forsale,\n            seller: msg.sender,\n            buyer: address(0)\n        });\n    }\n    \n    function buyItem(uint256 _sku) forSale(_sku) paidEnough(items[_sku].price) public payable{\n        address buyer = msg.sender;\n        \n        items[_sku].state = State.Sold;\n        items[_sku].buyer = buyer;\n        uint256 _price = items[_sku].price;\n        \n        address payable _seller = address(uint160(items[_sku].seller));\n        _seller.transfer(_price);\n        \n        emit Sold(_sku);\n    }\n    \n    function fetchItem(uint256 _sku) public view returns(string memory name, uint256 sku, uint256 price, string memory stateRes, address seller, address buyer){\n        name = items[_sku].name;\n        sku = items[_sku].sku;\n        price = items[_sku].price;\n        seller = items[_sku].seller;\n        buyer = items[_sku].buyer;\n        uint256 _state = uint256(items[_sku].state);\n        if(_state == 0){\n            stateRes = \"For Sale\";\n        }\n        \n        if(_state == 1){\n            stateRes = \"Sold\";\n        }\n    }\n}",
  "sourcePath": "/Users/mac/Documents/blockchain/itemshop/contracts/ItemShop.sol",
  "compiler": {
    "name": "solc",
    "version": "0.5.16+commit.9c3226ce.Emscripten.clang"
  },
  "schemaVersion": "3.4.1",
  "updatedAt": "2021-08-10T17:48:59.825Z",
  "networkType": "ethereum",
  "devdoc": {
    "methods": {}
  },
  "userdoc": {
    "methods": {}
  }
}